{"abi":[{"type":"constructor","inputs":[],"stateMutability":"nonpayable"},{"type":"function","name":"deregisterOperator","inputs":[{"name":"operator","type":"address","internalType":"address"}],"outputs":[],"stateMutability":"nonpayable"},{"type":"function","name":"getAllocationManager","inputs":[],"outputs":[{"name":"","type":"address","internalType":"address"}],"stateMutability":"pure"},{"type":"function","name":"getDelegationManager","inputs":[],"outputs":[{"name":"","type":"address","internalType":"address"}],"stateMutability":"pure"},{"type":"function","name":"getLastCheckpointQuorum","inputs":[],"outputs":[{"name":"","type":"uint256","internalType":"uint256"},{"name":"","type":"uint256","internalType":"uint256"}],"stateMutability":"view"},{"type":"function","name":"getLastCheckpointQuorumAtBlock","inputs":[{"name":"blockNumber","type":"uint32","internalType":"uint32"}],"outputs":[{"name":"","type":"uint256","internalType":"uint256"},{"name":"","type":"uint256","internalType":"uint256"}],"stateMutability":"view"},{"type":"function","name":"getLastCheckpointThresholdWeight","inputs":[],"outputs":[{"name":"","type":"uint256","internalType":"uint256"}],"stateMutability":"view"},{"type":"function","name":"getLastCheckpointThresholdWeightAtBlock","inputs":[{"name":"blockNumber","type":"uint32","internalType":"uint32"}],"outputs":[{"name":"","type":"uint256","internalType":"uint256"}],"stateMutability":"view"},{"type":"function","name":"getLastCheckpointTotalWeight","inputs":[],"outputs":[{"name":"","type":"uint256","internalType":"uint256"}],"stateMutability":"view"},{"type":"function","name":"getLastCheckpointTotalWeightAtBlock","inputs":[{"name":"blockNumber","type":"uint32","internalType":"uint32"}],"outputs":[{"name":"","type":"uint256","internalType":"uint256"}],"stateMutability":"view"},{"type":"function","name":"getLatestOperatorForSigningKey","inputs":[{"name":"signingKeyAddress","type":"address","internalType":"address"}],"outputs":[{"name":"","type":"address","internalType":"address"}],"stateMutability":"view"},{"type":"function","name":"getLatestOperatorSigningKey","inputs":[{"name":"operator","type":"address","internalType":"address"}],"outputs":[{"name":"","type":"address","internalType":"address"}],"stateMutability":"view"},{"type":"function","name":"getOperatorSigningKeyAtBlock","inputs":[{"name":"operator","type":"address","internalType":"address"},{"name":"blockNumber","type":"uint256","internalType":"uint256"}],"outputs":[{"name":"","type":"address","internalType":"address"}],"stateMutability":"view"},{"type":"function","name":"getOperatorWeight","inputs":[{"name":"operator","type":"address","internalType":"address"}],"outputs":[{"name":"","type":"uint256","internalType":"uint256"}],"stateMutability":"view"},{"type":"function","name":"getOperatorWeightAtBlock","inputs":[{"name":"operator","type":"address","internalType":"address"},{"name":"blockNumber","type":"uint32","internalType":"uint32"}],"outputs":[{"name":"","type":"uint256","internalType":"uint256"}],"stateMutability":"view"},{"type":"function","name":"getServiceURI","inputs":[],"outputs":[{"name":"","type":"string","internalType":"string"}],"stateMutability":"view"},{"type":"function","name":"getStakeRegistry","inputs":[],"outputs":[{"name":"","type":"address","internalType":"address"}],"stateMutability":"pure"},{"type":"function","name":"initialize","inputs":[{"name":"initialOwner","type":"address","internalType":"address"},{"name":"thresholdWeight","type":"uint256","internalType":"uint256"},{"name":"quorumNumerator","type":"uint256","internalType":"uint256"},{"name":"quorumDenominator","type":"uint256","internalType":"uint256"}],"outputs":[],"stateMutability":"nonpayable"},{"type":"function","name":"isValidSignature","inputs":[{"name":"digest","type":"bytes32","internalType":"bytes32"},{"name":"_signatureData","type":"bytes","internalType":"bytes"}],"outputs":[{"name":"","type":"bytes4","internalType":"bytes4"}],"stateMutability":"view"},{"type":"function","name":"operatorRegistered","inputs":[{"name":"operator","type":"address","internalType":"address"}],"outputs":[{"name":"","type":"bool","internalType":"bool"}],"stateMutability":"view"},{"type":"function","name":"owner","inputs":[],"outputs":[{"name":"","type":"address","internalType":"address"}],"stateMutability":"view"},{"type":"function","name":"registerOperator","inputs":[{"name":"operator","type":"address","internalType":"address"},{"name":"weight","type":"uint256","internalType":"uint256"}],"outputs":[],"stateMutability":"nonpayable"},{"type":"function","name":"renounceOwnership","inputs":[],"outputs":[],"stateMutability":"nonpayable"},{"type":"function","name":"setServiceURI","inputs":[{"name":"__serviceuri","type":"string","internalType":"string"}],"outputs":[],"stateMutability":"nonpayable"},{"type":"function","name":"transferOwnership","inputs":[{"name":"newOwner","type":"address","internalType":"address"}],"outputs":[],"stateMutability":"nonpayable"},{"type":"function","name":"updateOperatorSigningKey","inputs":[{"name":"newSigningKey","type":"address","internalType":"address"},{"name":"signingKeySignature","type":"bytes","internalType":"bytes"}],"outputs":[],"stateMutability":"nonpayable"},{"type":"function","name":"updateOperatorWeight","inputs":[{"name":"operator","type":"address","internalType":"address"},{"name":"weight","type":"uint256","internalType":"uint256"}],"outputs":[],"stateMutability":"nonpayable"},{"type":"function","name":"updateQuorum","inputs":[{"name":"quorumNumerator","type":"uint256","internalType":"uint256"},{"name":"quorumDenominator","type":"uint256","internalType":"uint256"}],"outputs":[],"stateMutability":"nonpayable"},{"type":"function","name":"updateStakeThreshold","inputs":[{"name":"thresholdWeight","type":"uint256","internalType":"uint256"}],"outputs":[],"stateMutability":"nonpayable"},{"type":"function","name":"validate","inputs":[{"name":"envelope","type":"tuple","internalType":"struct IWavsServiceHandler.Envelope","components":[{"name":"eventId","type":"bytes20","internalType":"bytes20"},{"name":"ordering","type":"bytes12","internalType":"bytes12"},{"name":"payload","type":"bytes","internalType":"bytes"}]},{"name":"signatureData","type":"tuple","internalType":"struct IWavsServiceHandler.SignatureData","components":[{"name":"signers","type":"address[]","internalType":"address[]"},{"name":"signatures","type":"bytes[]","internalType":"bytes[]"},{"name":"referenceBlock","type":"uint32","internalType":"uint32"}]}],"outputs":[],"stateMutability":"view"},{"type":"event","name":"Initialized","inputs":[{"name":"version","type":"uint64","indexed":false,"internalType":"uint64"}],"anonymous":false},{"type":"event","name":"OperatorDeregistered","inputs":[{"name":"operator","type":"address","indexed":true,"internalType":"address"}],"anonymous":false},{"type":"event","name":"OperatorRegistered","inputs":[{"name":"operator","type":"address","indexed":true,"internalType":"address"}],"anonymous":false},{"type":"event","name":"OperatorWeightUpdated","inputs":[{"name":"operator","type":"address","indexed":true,"internalType":"address"},{"name":"oldWeight","type":"uint256","indexed":false,"internalType":"uint256"},{"name":"newWeight","type":"uint256","indexed":false,"internalType":"uint256"}],"anonymous":false},{"type":"event","name":"OwnershipTransferred","inputs":[{"name":"previousOwner","type":"address","indexed":true,"internalType":"address"},{"name":"newOwner","type":"address","indexed":true,"internalType":"address"}],"anonymous":false},{"type":"event","name":"QuorumThresholdUpdated","inputs":[{"name":"numerator","type":"uint256","indexed":true,"internalType":"uint256"},{"name":"denominator","type":"uint256","indexed":true,"internalType":"uint256"}],"anonymous":false},{"type":"event","name":"ServiceURIUpdated","inputs":[{"name":"serviceURI","type":"string","indexed":false,"internalType":"string"}],"anonymous":false},{"type":"event","name":"SigningKeyUpdate","inputs":[{"name":"operator","type":"address","indexed":true,"internalType":"address"},{"name":"updateBlock","type":"uint256","indexed":true,"internalType":"uint256"},{"name":"newSigningKey","type":"address","indexed":true,"internalType":"address"},{"name":"oldSigningKey","type":"address","indexed":false,"internalType":"address"}],"anonymous":false},{"type":"event","name":"ThresholdWeightUpdated","inputs":[{"name":"thresholdWeight","type":"uint256","indexed":false,"internalType":"uint256"}],"anonymous":false},{"type":"event","name":"TotalWeightUpdated","inputs":[{"name":"oldTotalWeight","type":"uint256","indexed":false,"internalType":"uint256"},{"name":"newTotalWeight","type":"uint256","indexed":false,"internalType":"uint256"}],"anonymous":false},{"type":"error","name":"CheckpointUnorderedInsertion","inputs":[]},{"type":"error","name":"InsufficientQuorum","inputs":[{"name":"signerWeight","type":"uint256","internalType":"uint256"},{"name":"thresholdWeight","type":"uint256","internalType":"uint256"},{"name":"totalWeight","type":"uint256","internalType":"uint256"}]},{"type":"error","name":"InsufficientQuorumZero","inputs":[]},{"type":"error","name":"InsufficientSignedStake","inputs":[]},{"type":"error","name":"InvalidAddressZero","inputs":[]},{"type":"error","name":"InvalidInitialization","inputs":[]},{"type":"error","name":"InvalidLength","inputs":[]},{"type":"error","name":"InvalidQuorum","inputs":[]},{"type":"error","name":"InvalidQuorumParameters","inputs":[]},{"type":"error","name":"InvalidReferenceBlock","inputs":[]},{"type":"error","name":"InvalidSignature","inputs":[]},{"type":"error","name":"InvalidSignatureBlock","inputs":[]},{"type":"error","name":"InvalidSignatureLength","inputs":[]},{"type":"error","name":"InvalidSignatureOrder","inputs":[]},{"type":"error","name":"InvalidSignedWeight","inputs":[]},{"type":"error","name":"InvalidThresholdWeight","inputs":[]},{"type":"error","name":"InvalidWeight","inputs":[]},{"type":"error","name":"LengthMismatch","inputs":[]},{"type":"error","name":"NotInitializing","inputs":[]},{"type":"error","name":"NotSorted","inputs":[]},{"type":"error","name":"OperatorAlreadyRegistered","inputs":[]},{"type":"error","name":"OperatorNotRegistered","inputs":[]},{"type":"error","name":"OwnableInvalidOwner","inputs":[{"name":"owner","type":"address","internalType":"address"}]},{"type":"error","name":"OwnableUnauthorizedAccount","inputs":[{"name":"account","type":"address","internalType":"address"}]},{"type":"error","name":"SignerNotRegistered","inputs":[]},{"type":"error","name":"SigningKeyAlreadyAssigned","inputs":[]}],"bytecode":{"object":"0x6080806040523460aa575f5160206128d45f395f51905f525460ff8160401c16609b576002600160401b03196001600160401b038216016049575b60405161282590816100af8239f35b6001600160401b0319166001600160401b039081175f5160206128d45f395f51905f525581527fc7f505b2f371ae2175ee4913f4499e1f2633a7b5936321eed1cdaeb6115181d290602090a15f80603a565b63f92ee8a960e01b5f5260045ffd5b5f80fdfe60806040526004361015610011575f80fd5b5f3560e01c80630dba3394146101da5780631626ba7e146101d55780631e4cd85e146101d0578063314f3a49146101cb5780634ec81af1146101c6578063530c74c0146101c15780635e1042e8146101bc5780635ef53329146101b75780635f11301b146101b25780636dc7458d146101ad578063715018a6146101a85780637d39f06d146101a35780638da5cb5b1461019e578063955f2d901461019957806398ec1ac914610194578063a28efd6b1461017b578063a2ce5fd11461018f578063ac7cbfd91461018a578063b00c04e114610185578063b24e5a3a1461017b578063b933fa7414610180578063bef4c8391461017b578063c788c52014610176578063cc922c6a14610171578063cd71589e1461016c578063d8cf98ca14610167578063dec24b1814610162578063ec7fbb311461015d5763f2fde38b14610158575f80fd5b610f08565b610ec8565b610e99565b610dee565b610c84565b610bab565b610a6f565b61097c565b610a4d565b610a18565b6109d7565b610996565b61093b565b6108e6565b6108b2565b610876565b61080f565b6107a5565b610654565b610630565b6105e4565b6105bb565b61045b565b610428565b6103f1565b6102dd565b6101f1565b63ffffffff8116036101ed57565b5f80fd5b346101ed5760203660031901126101ed576020600435610210816101df565b6001600160a01b03906102289063ffffffff16611310565b16604051908152f35b634e487b7160e01b5f52604160045260245ffd5b90601f801991011681019081106001600160401b0382111761026657604052565b610231565b6040519061027a604083610245565b565b6001600160401b03811161026657601f01601f191660200190565b81601f820112156101ed578035906102ae8261027c565b926102bc6040519485610245565b828452602083830101116101ed57815f926020809301838601378301015290565b346101ed5760403660031901126101ed576024356001600160401b0381116101ed5761030d903690600401610297565b8051810190606081602084019303126101ed5760208101516001600160401b0381116101ed5781019082603f830112156101ed5760208201519161035083610f35565b9261035e6040519485610245565b8084526020808086019260051b84010101918583116101ed57604001905b8282106103d75750505060408101516001600160401b0381116101ed5760606103b06103c09560206103b794860101610f4c565b9201611004565b916004356116f0565b604051630b135d3f60e11b815280602081015b0390f35b6020809183516103e68161044a565b81520191019061037c565b346101ed5760203660031901126101ed576020600435610410816101df565b6001600160a01b03906102289063ffffffff166113d9565b346101ed575f3660031901126101ed5760206001600160a01b036102286117bc565b6001600160a01b038116036101ed57565b346101ed5760803660031901126101ed576004356104788161044a565b5f5160206127d05f395f51905f5254906064356044356024356001600160401b036104bb60ff604088901c16156104ae565b1590565b966001600160401b031690565b16801590816105b3575b60011490816105a9575b1590816105a0575b506105915761051a938561051160016001600160401b03195f5160206127d05f395f51905f525416175f5160206127d05f395f51905f5255565b61056d5761100f565b61052057005b5f5160206127d05f395f51905f52805460ff60401b19169055604051600181527fc7f505b2f371ae2175ee4913f4499e1f2633a7b5936321eed1cdaeb6115181d29080602081015b0390a1005b5f5160206127d05f395f51905f52805460ff60401b1916600160401b17905561100f565b63f92ee8a960e01b5f5260045ffd5b9050155f6104d7565b303b1591506104cf565b8691506104c5565b346101ed5760403660031901126101ed576105e26024356004356105dd611a1b565b61196e565b005b346101ed5760403660031901126101ed5760206004356106038161044a565b6001600160a01b039081165f9081526002835260409020610228906001600160601b03602435169061161f565b346101ed5760203660031901126101ed576105e260043561064f611a1b565b6118f6565b346101ed5760203660031901126101ed576004356001600160401b0381116101ed57366023820112156101ed578060040135906001600160401b0382116101ed5736602483830101116101ed57602401906106ad611a1b565b6001600160401b038111610266576106cf816106ca600154611040565b611078565b5f601f82116001146107395781906106fc935f9261072e575b50508160011b915f199060031b1c19161790565b6001555b7fd2f056df94c31bdb3b4e16080f2ac6dbd4233c6001058d94afc3ad1242dff48860405180610568816110c8565b013590505f806106e8565b60015f52601f198216925f5160206127b05f395f51905f52915f5b85811061078d57508360019510610774575b505050811b01600155610700565b01355f19600384901b60f8161c191690555f8080610766565b90926020600181928686013581550194019101610754565b346101ed5760403660031901126101ed576004356107c28161044a565b6024356001600160401b0381116101ed576107e1903690600401610297565b335f52600960205260ff60405f20541615610800576105e29133611a4e565b6325ec6c1f60e01b5f5260045ffd5b346101ed575f3660031901126101ed57610827611a1b565b5f5160206127705f395f51905f5280546001600160a01b031981169091555f906001600160a01b03167f8be0079c531659141344cd1fd0a4f28419497f9722a3daafe3b4186f6b6457e08280a3005b346101ed575f3660031901126101ed5761088e611800565b610896611844565b604080516001600160a01b039384168152919092166020820152f35b346101ed575f3660031901126101ed575f5160206127705f395f51905f52546040516001600160a01b039091168152602090f35b346101ed5760403660031901126101ed5760206004356109058161044a565b60243590610912826101df565b60018060a01b03165f526008825261022860405f2063ffffffff60018060a01b0393169061161f565b346101ed5760203660031901126101ed576004356109588161044a565b60018060a01b03165f526008602052602060018060a01b0361022860405f206118cc565b346101ed575f3660031901126101ed5760206040515f8152f35b346101ed5760203660031901126101ed576004356109b38161044a565b60018060a01b03165f526002602052602060018060a01b0361022860405f206118cc565b346101ed5760203660031901126101ed576004356109f48161044a565b60018060a01b03165f526003602052602060018060a01b0361022860405f206118cc565b346101ed5760203660031901126101ed5763ffffffff600435610a3a816101df565b16610896610a478261149b565b9161155d565b346101ed575f3660031901126101ed5760206001600160a01b03610228611888565b346101ed5760403660031901126101ed57600435610a8c8161044a565b602435610a97611a1b565b80158015610b77575b610b68576001600160a01b038216918215610b59576001600160a01b0381165f908152600960205260409020610ad8905b5460ff1690565b610b4a57610b2291610b1d91610aee5f54611c05565b5f9081556001600160a01b0382168152600960205260409020610b1890805460ff19166001179055565b611d51565b611e24565b50507f4d0eb1f4bac8744fd2be119845e23b3befc88094b42bcda1204c65694a00f9e55f80a2005b6342ee68b560e01b5f5260045ffd5b630863a45360e11b5f5260045ffd5b63585b926360e01b5f5260045ffd5b506001600160a01b038111610aa0565b805180835260209291819084018484015e5f828201840152601f01601f1916010190565b346101ed575f3660031901126101ed576040515f600154610bcb81611040565b8084529060018116908115610c525750600114610c07575b6103d383610bf381850382610245565b604051918291602083526020830190610b87565b60015f9081525f5160206127b05f395f51905f52939250905b808210610c3857509091508101602001610bf3610be3565b919260018160209254838588010152019101909291610c20565b60ff191660208086019190915291151560051b84019091019150610bf39050610be3565b908160609103126101ed5790565b346101ed5760403660031901126101ed576004356001600160401b0381116101ed57610cb4903690600401610c76565b6024356001600160401b0381116101ed57610cd3903690600401610c76565b906040519160208301916020835280356001600160601b031981168091036101ed57604085015260208101356001600160a01b03198116908190036101ed5760608501526040810135601e19823603018112156101ed570192602084359401936001600160401b0381116101ed5780360385136101ed57610db2610de09483610d8281610d746105e29a610de8976060608060409b015260a0840191611155565b03601f198101835282610245565b5190207f19457468657265756d205369676e6564204d6573736167653a0a3332000000005f52601c52603c5f2090565b92610dbd8180611175565b9590610dd8610dcf6020850185611175565b969094016111aa565b9636916111b7565b92369161120d565b916116f0565b346101ed5760203660031901126101ed57600435610e0b8161044a565b610e13611a1b565b6001600160a01b038116908115610b59575f8281526009602052604090205460ff161561080057610b1d610e7191610e4b5f54611c13565b5f9081556001600160a01b0382168152600960205260409020805460ff19169055611c37565b50507f6dd4ca66565fb3dee8076c654634c6c4ad949022d809d0394308617d6791218d5f80a2005b346101ed5760403660031901126101ed576105e2610b1d600435610ebc8161044a565b60243590610b18611a1b565b346101ed5760203660031901126101ed57600435610ee58161044a565b60018060a01b03165f526009602052602060ff60405f2054166040519015158152f35b346101ed5760203660031901126101ed576105e2600435610f288161044a565b610f30611a1b565b611278565b6001600160401b0381116102665760051b60200190565b9080601f830112156101ed57815191610f6483610f35565b92610f726040519485610245565b80845260208085019160051b830101918383116101ed5760208101915b838310610f9e57505050505090565b82516001600160401b0381116101ed57820185603f820112156101ed57602081015191610fca8361027c565b610fd76040519182610245565b83815260408385010188106101ed575f602085819660408397018386015e83010152815201920191610f8f565b519061027a826101df565b91926001600160a01b03831615610b595761027a936105dd611030936118f6565b611038612047565b610f30612047565b90600182811c9216801561106e575b602083101461105a57565b634e487b7160e01b5f52602260045260245ffd5b91607f169161104f565b601f8111611084575050565b60015f5260205f20906020601f840160051c830193106110be575b601f0160051c01905b8181106110b3575050565b5f81556001016110a8565b909150819061109f565b602081526001545f916110da82611040565b918260208301526001811690815f1461113957506001146110fa57505090565b60015f9081529250905f5160206127b05f395f51905f525b8184106111225750500160400190565b805484840160400152602090930192600101611112565b602094508493915060ff19166040830152151560051b01010190565b908060209392818452848401375f828201840152601f01601f1916010190565b903590601e19813603018212156101ed57018035906001600160401b0382116101ed57602001918160051b360383136101ed57565b356111b4816101df565b90565b9291906111c381610f35565b936111d16040519586610245565b602085838152019160051b81019283116101ed57905b8282106111f357505050565b6020809183356112028161044a565b8152019101906111e7565b92919061121981610f35565b936112276040519586610245565b602085838152019160051b8101918383116101ed5781905b83821061124d575050505050565b81356001600160401b0381116101ed5760209161126d8784938701610297565b81520191019061123f565b6001600160a01b031680156112d6575f5160206127705f395f51905f5280546001600160a01b0319811683179091556001600160a01b03167f8be0079c531659141344cd1fd0a4f28419497f9722a3daafe3b4186f6b6457e05f80a3565b631e4fbdf760e01b5f525f60045260245ffd5b634e487b7160e01b5f52601160045260245ffd5b5f1981019190821161130b57565b6112e9565b600454906001600160601b03165f5b8281106113715750508061133257505f90565b61136a6113416111b4926112fd565b60045f527f8a35acfbc15ff81a39ae7d344fd709f28e8600b4aa8c65c6b64bfe7fe36bd19b0190565b5460601c90565b90918082169080831860011c820180921161130b5760045f527f8a35acfbc15ff81a39ae7d344fd709f28e8600b4aa8c65c6b64bfe7fe36bd19b8201546001600160601b03168410156113c75750915b9061131f565b9291506113d3906116d5565b906113c1565b600554906001600160601b03165f5b828110611433575050806113fb57505f90565b61136a61140a6111b4926112fd565b60055f527f036b6384b5eca791c62761152d0c79bb0604c104a5fb6f4eb0703f3154bb3db00190565b90918082169080831860011c820180921161130b5760055f527f036b6384b5eca791c62761152d0c79bb0604c104a5fb6f4eb0703f3154bb3db08201546001600160601b03168410156114895750915b906113e8565b929150611495906116d5565b90611483565b600654906001600160601b03165f5b8281106114f5575050806114bd57505f90565b61136a6114cc6111b4926112fd565b60065f527ff652222313e28459528d920b65115c16c04f3efc82aaedc97be59f3f377c0d3f0190565b90918082169080831860011c820180921161130b5760065f527ff652222313e28459528d920b65115c16c04f3efc82aaedc97be59f3f377c0d3f8201546001600160601b031684101561154b5750915b906114aa565b929150611557906116d5565b90611545565b600754906001600160601b03165f5b8281106115b75750508061157f57505f90565b61136a61158e6111b4926112fd565b60075f527fa66cc928b5edb82af9bd49922954155ab7b0942694bea4ce44661d9a8736c6880190565b90918082169080831860011c820180921161130b5760075f527fa66cc928b5edb82af9bd49922954155ab7b0942694bea4ce44661d9a8736c6888201546001600160601b031684101561160d5750915b9061156c565b929150611619906116d5565b90611607565b805490916001600160601b03165f5b82811061165d575050806116425750505f90565b6111b49161165261136a926112fd565b905f5260205f200190565b90918082169080831860011c820180921161130b575f858152602090208201546001600160601b03168410156116965750915b9061162e565b9291506116a2906116d5565b90611690565b634e487b7160e01b5f52603260045260245ffd5b80518210156116d05760209160051b010190565b6116a8565b906001820180921161130b57565b9190820180921161130b57565b9392918151905f955f93825184036117ad57831561179e579291905f935b83851061172557505050505061027a929350611fc7565b909192939460018060a01b0361173b87846116bc565b5116806117488982611eab565b9a6001600160a01b0316101561178f5760019161177e89611784936117786117708c8b6116bc565b518983611f37565b9c611f58565b906116e3565b95019392919061170e565b63ba50f91160e01b5f5260045ffd5b63251f56a160e21b5f5260045ffd5b631fec674760e31b5f5260045ffd5b600454806117c957505f90565b805f1981011161130b5760045f527f8a35acfbc15ff81a39ae7d344fd709f28e8600b4aa8c65c6b64bfe7fe36bd19a015460601c90565b6006548061180d57505f90565b805f1981011161130b5760065f527ff652222313e28459528d920b65115c16c04f3efc82aaedc97be59f3f377c0d3e015460601c90565b6007548061185157505f90565b805f1981011161130b5760075f527fa66cc928b5edb82af9bd49922954155ab7b0942694bea4ce44661d9a8736c687015460601c90565b6005548061189557505f90565b805f1981011161130b5760055f527f036b6384b5eca791c62761152d0c79bb0604c104a5fb6f4eb0703f3154bb3daf015460601c90565b805490816118da5750505f90565b815f1981011161130b575f525f199060205f2001015460601c90565b6001600160a01b0381118015611966575b611957577f9324f7e5a7c0288808a634ccde44b8e979676474b22e29ee9dd569b55e791a4b9060209061194c6001600160a01b038216436001600160601b03166122a9565b5050604051908152a1565b63d349279d60e01b5f5260045ffd5b508015611907565b6001600160a01b0381118015611a0b575b8015611a03575b80156119fa575b6119eb576119c3436001600160601b03166119b16001600160a01b03841682612378565b50506001600160a01b03841690612419565b50507fc33728fb6bc64ec1c5596c946e1406ccdfb7369404098c1d6a5f4a7a29c97b635f80a3565b63d173577960e01b5f5260045ffd5b5081811161198d565b508115611986565b506001600160a01b03821161197f565b5f5160206127705f395f51905f52546001600160a01b03163303611a3b57565b63118cdaa760e01b5f523360045260245ffd5b6001600160a01b038216928315610b5957604080516001600160a01b03841660208201908152611a929392909190611a899082908101610d74565b51902084611f37565b611ac6611aba611aba611ab58560018060a01b03165f52600360205260405f2090565b6118cc565b6001600160a01b031690565b8015159081611bf1575b50611be2576001600160a01b0381165f908152600260205260409020611af990611aba906118cc565b916001600160a01b038316848114611bdb576001600160a01b0383165f9081526002602052604090208593611b7191611b5e9094611b436001600160601b03431697888098612606565b50506001600160a01b03165f90815260036020526040902090565b6001600160a01b03909116948591612606565b5050611bb4575b506040516001600160a01b0392909216825243917fd061168252f441733658f09e4d8f5b2d998ed4ef24a2bbfd6ceca52ea131500290602090a4565b6001600160a01b0383165f908152600360205260409020611bd591906124ba565b50611b78565b5050505050565b6314f88f3b60e11b5f5260045ffd5b6001600160a01b038316141590505f611ad0565b5f19811461130b5760010190565b801561130b575f190190565b81810392915f13801582851316918412161761130b57565b6001600160a01b0381168015610b59575f915f611c6a611aba611ab58460018060a01b03165f52600860205260405f2090565b9384611c8c6104aa610ad18660018060a01b03165f52600960205260405f2090565b15611cf957611c9a91611c1f565b938415611cf257611cdc611ccc5f5160206127905f395f51905f529460018060a01b03165f52600860205260405f2090565b6001600160601b034316906124ba565b50505b604080519182526020820192909252a290565b5050505090565b5050505f611d07845f611c1f565b938415611cf257611d4a5f611d3a5f5160206127905f395f51905f529560018060a01b03165f52600860205260405f2090565b6001600160601b03431690612606565b5050611cdf565b6001600160a01b038211610b68576001600160a01b038116908115610b59576001600160a01b0381165f9081526008602052604081208190611d9690611aba906118cc565b94611db76104aa610ad18660018060a01b03165f52600960205260405f2090565b15611dc7575084611c9a91611c1f565b92949150508190611dd88184611c1f565b948515611e1c576001600160a01b039081165f9081526008602052604090205f5160206127905f395f51905f5294611d4a9216906001600160601b03431690612606565b505050505090565b6001600160a01b03611e346117bc565b16918183019182125f841290801582169115161761130b5781838114611ea75750611e716001600160a01b038316436001600160601b0316612565565b505060408051848152602081018490527f86dcf86b12dfeedea74ae9300dbdaa193bcce5809369c8177ea2f4eaaa65729b9190a1565b9150565b9063ffffffff1663ffffffff8114611f175743811015611f0857611ee2611ee79260018060a01b03165f52600360205260405f2090565b61161f565b6001600160a01b03168015611ef95790565b633dda173960e01b5f5260045ffd5b63e64f180f60e01b5f5260045ffd5b506001600160a01b03165f908152600360205260409020611aba906118cc565b90611f429291612090565b15611f4957565b638baa579f60e01b5f5260045ffd5b9063ffffffff1663ffffffff8114611f8e5743811015611f0857611aba9160018060a01b03165f52600860205260405f2061161f565b506001600160a01b039081165f908152600860205260409020611fb0906118cc565b1690565b8181029291811591840414171561130b57565b90611fd181612172565b918281116120385780611fe3836121ae565b1161202957611ff4611ffd926121ea565b82939193611fb4565b6120078484611fb4565b1161201157505050565b6386b1609160e01b5f5260045260245260445260645ffd5b63e121632f60e01b5f5260045ffd5b634b05a0f760e11b5f5260045ffd5b60ff5f5160206127d05f395f51905f525460401c161561206357565b631afcd79f60e31b5f5260045ffd5b6004111561207c57565b634e487b7160e01b5f52602160045260245ffd5b9190823b6120cb57906120a2916126b2565b506120ac81612072565b1591826120b857505090565b6001600160a01b03918216911614919050565b915f92610d7461210185946040519283916020830195630b135d3f60e11b87526024840152604060448401526064830190610b87565b51915afa3d1561216b573d6121158161027c565b906121236040519283610245565b81523d5f602083013e5b8161215d575b8161213c575090565b9050612159630b135d3f60e11b91602080825183010191016126a3565b1490565b905060208151101590612133565b606061212d565b63ffffffff1663ffffffff811461219d5743811015611f08576001600160a01b0390611fb090611310565b506001600160a01b03611fb06117bc565b63ffffffff1663ffffffff81146121d95743811015611f08576001600160a01b0390611fb0906113d9565b506001600160a01b03611fb0611888565b63ffffffff169063ffffffff82146122265743821015611f08576122166122108361149b565b9261155d565b6001600160a01b03928316921690565b9050612230611800565b90612216611844565b906001600160601b0382549181199060601b169116179055565b908154600160401b81101561026657600181018084558110156116d05761027a925f5260205f2001906001600160601b038151166001600160601b0319835416178255602060018060a01b039101511690612239565b600554919291801561234f5761140a6122c1916112fd565b9081546122de6122d7826001600160601b031690565b9160601c90565b926001600160601b0380841692169180831161234057869203612309576123059250612239565b9190565b50506123059061232961231a61026b565b6001600160601b039092168252565b6001600160a01b03851660208201525b6005612253565b632520601d60e01b5f5260045ffd5b506123739061235f61231a61026b565b6001600160a01b0384166020820152612339565b5f9190565b60065491929180156123f5576114cc612390916112fd565b9081546123a66122d7826001600160601b031690565b926001600160601b03808416921691808311612340578692036123cd576123059250612239565b5050612305906123de61231a61026b565b6001600160a01b03851660208201525b6006612253565b506123739061240561231a61026b565b6001600160a01b03841660208201526123ee565b60075491929180156124965761158e612431916112fd565b9081546124476122d7826001600160601b031690565b926001600160601b038084169216918083116123405786920361246e576123059250612239565b50506123059061247f61231a61026b565b6001600160a01b03851660208201525b6007612253565b50612373906124a661231a61026b565b6001600160a01b038416602082015261248f565b8054909190801561254f576124d16124dc916112fd565b835f5260205f200190565b908154926124fa6124f3856001600160601b031690565b9460601c90565b936001600160601b03808416911681811161234057036125255750505f61252091612239565b905f90565b612520925061254461253561026b565b6001600160601b039093168352565b5f6020830152612253565b5061255f9161254461253561026b565b5f905f90565b60045491929180156125e25761134161257d916112fd565b9081546125936122d7826001600160601b031690565b926001600160601b03808416921691808311612340578692036125ba576123059250612239565b5050612305906125cb61231a61026b565b6001600160a01b03851660208201525b6004612253565b50612373906125f261231a61026b565b6001600160a01b03841660208201526125db565b8054929392801561267e5761261d612628916112fd565b825f5260205f200190565b8054606081901c936001600160601b03918216929181168084116123405787930361265857506123059250612239565b9150506123059161266a61253561026b565b6001600160a01b0386166020830152612253565b50906123739161268f61253561026b565b6001600160a01b0385166020830152612253565b908160209103126101ed575190565b81519190604183036126e2576126db9250602082015190606060408401519301515f1a906126ec565b9192909190565b50505f9160029190565b91906fa2a8918ca85bafe22016d0b997e4df60600160ff1b038411612764579160209360809260ff5f9560405194855216868401526040830152606082015282805260015afa15612759575f516001600160a01b0381161561274f57905f905f90565b505f906001905f90565b6040513d5f823e3d90fd5b5050505f916003919056fe9016d09d72d40fdae2fd8ceac6b6234c7706214fd39c1cd1e609a0528c19930088770dc862e47a7ed586907857eb1b75e4c5ffc8b707c7ee10eb74d6885fe594b10e2d527612073b26eecdfd717e6a320cf44b4afac2b0732d9fcbe2b7fa0cf6f0c57e16840df040f15088dc2f81fe391c3923bec73e23a9662efc9c229c6a00a2646970667358221220daaf16f49a5f796ea2e53e7652cbfbb11a64704891da1d4c371e01f7d327126264736f6c634300081b0033f0c57e16840df040f15088dc2f81fe391c3923bec73e23a9662efc9c229c6a00","linkReferences":{}},"methodIdentifiers":{"deregisterOperator(address)":"d8cf98ca","getAllocationManager()":"a28efd6b","getDelegationManager()":"b24e5a3a","getLastCheckpointQuorum()":"7d39f06d","getLastCheckpointQuorumAtBlock(uint32)":"b00c04e1","getLastCheckpointThresholdWeight()":"b933fa74","getLastCheckpointThresholdWeightAtBlock(uint32)":"1e4cd85e","getLastCheckpointTotalWeight()":"314f3a49","getLastCheckpointTotalWeightAtBlock(uint32)":"0dba3394","getLatestOperatorForSigningKey(address)":"ac7cbfd9","getLatestOperatorSigningKey(address)":"a2ce5fd1","getOperatorSigningKeyAtBlock(address,uint256)":"5e1042e8","getOperatorWeight(address)":"98ec1ac9","getOperatorWeightAtBlock(address,uint32)":"955f2d90","getServiceURI()":"cc922c6a","getStakeRegistry()":"bef4c839","initialize(address,uint256,uint256,uint256)":"4ec81af1","isValidSignature(bytes32,bytes)":"1626ba7e","operatorRegistered(address)":"ec7fbb31","owner()":"8da5cb5b","registerOperator(address,uint256)":"c788c520","renounceOwnership()":"715018a6","setServiceURI(string)":"5f11301b","transferOwnership(address)":"f2fde38b","updateOperatorSigningKey(address,bytes)":"6dc7458d","updateOperatorWeight(address,uint256)":"dec24b18","updateQuorum(uint256,uint256)":"530c74c0","updateStakeThreshold(uint256)":"5ef53329","validate((bytes20,bytes12,bytes),(address[],bytes[],uint32))":"cd71589e"},"id":88}