{"abi":[{"type":"constructor","inputs":[{"name":"_delegationManager","type":"address","internalType":"contract IDelegationManager"}],"stateMutability":"nonpayable"},{"type":"function","name":"deregisterOperator","inputs":[],"outputs":[],"stateMutability":"nonpayable"},{"type":"function","name":"getLastCheckpointOperatorWeight","inputs":[{"name":"operator","type":"address","internalType":"address"}],"outputs":[{"name":"","type":"uint256","internalType":"uint256"}],"stateMutability":"view"},{"type":"function","name":"getLastCheckpointThresholdWeight","inputs":[],"outputs":[{"name":"","type":"uint256","internalType":"uint256"}],"stateMutability":"view"},{"type":"function","name":"getLastCheckpointThresholdWeightAtBlock","inputs":[{"name":"blockNumber","type":"uint32","internalType":"uint32"}],"outputs":[{"name":"","type":"uint256","internalType":"uint256"}],"stateMutability":"view"},{"type":"function","name":"getLastCheckpointTotalWeight","inputs":[],"outputs":[{"name":"","type":"uint256","internalType":"uint256"}],"stateMutability":"view"},{"type":"function","name":"getLastCheckpointTotalWeightAtBlock","inputs":[{"name":"blockNumber","type":"uint32","internalType":"uint32"}],"outputs":[{"name":"","type":"uint256","internalType":"uint256"}],"stateMutability":"view"},{"type":"function","name":"getLatestOperatorSigningKey","inputs":[{"name":"operator","type":"address","internalType":"address"}],"outputs":[{"name":"","type":"address","internalType":"address"}],"stateMutability":"view"},{"type":"function","name":"getOperatorSigningKeyAtBlock","inputs":[{"name":"operator","type":"address","internalType":"address"},{"name":"blockNumber","type":"uint256","internalType":"uint256"}],"outputs":[{"name":"","type":"address","internalType":"address"}],"stateMutability":"view"},{"type":"function","name":"getOperatorWeight","inputs":[{"name":"operator","type":"address","internalType":"address"}],"outputs":[{"name":"","type":"uint256","internalType":"uint256"}],"stateMutability":"view"},{"type":"function","name":"getOperatorWeightAtBlock","inputs":[{"name":"operator","type":"address","internalType":"address"},{"name":"blockNumber","type":"uint32","internalType":"uint32"}],"outputs":[{"name":"","type":"uint256","internalType":"uint256"}],"stateMutability":"view"},{"type":"function","name":"initialize","inputs":[{"name":"_serviceManager","type":"address","internalType":"address"},{"name":"thresholdWeight","type":"uint256","internalType":"uint256"},{"name":"quorum","type":"tuple","internalType":"struct IECDSAStakeRegistryTypes.Quorum","components":[{"name":"strategies","type":"tuple[]","internalType":"struct IECDSAStakeRegistryTypes.StrategyParams[]","components":[{"name":"strategy","type":"address","internalType":"contract IStrategy"},{"name":"multiplier","type":"uint96","internalType":"uint96"}]}]}],"outputs":[],"stateMutability":"nonpayable"},{"type":"function","name":"isValidSignature","inputs":[{"name":"digest","type":"bytes32","internalType":"bytes32"},{"name":"_signatureData","type":"bytes","internalType":"bytes"}],"outputs":[{"name":"","type":"bytes4","internalType":"bytes4"}],"stateMutability":"view"},{"type":"function","name":"minimumWeight","inputs":[],"outputs":[{"name":"","type":"uint256","internalType":"uint256"}],"stateMutability":"view"},{"type":"function","name":"operatorRegistered","inputs":[{"name":"operator","type":"address","internalType":"address"}],"outputs":[{"name":"","type":"bool","internalType":"bool"}],"stateMutability":"view"},{"type":"function","name":"owner","inputs":[],"outputs":[{"name":"","type":"address","internalType":"address"}],"stateMutability":"view"},{"type":"function","name":"quorum","inputs":[],"outputs":[{"name":"","type":"tuple","internalType":"struct IECDSAStakeRegistryTypes.Quorum","components":[{"name":"strategies","type":"tuple[]","internalType":"struct IECDSAStakeRegistryTypes.StrategyParams[]","components":[{"name":"strategy","type":"address","internalType":"contract IStrategy"},{"name":"multiplier","type":"uint96","internalType":"uint96"}]}]}],"stateMutability":"view"},{"type":"function","name":"registerOperatorWithSignature","inputs":[{"name":"operatorSignature","type":"tuple","internalType":"struct ISignatureUtilsMixinTypes.SignatureWithSaltAndExpiry","components":[{"name":"signature","type":"bytes","internalType":"bytes"},{"name":"salt","type":"bytes32","internalType":"bytes32"},{"name":"expiry","type":"uint256","internalType":"uint256"}]},{"name":"signingKey","type":"address","internalType":"address"}],"outputs":[],"stateMutability":"nonpayable"},{"type":"function","name":"renounceOwnership","inputs":[],"outputs":[],"stateMutability":"nonpayable"},{"type":"function","name":"transferOwnership","inputs":[{"name":"newOwner","type":"address","internalType":"address"}],"outputs":[],"stateMutability":"nonpayable"},{"type":"function","name":"updateMinimumWeight","inputs":[{"name":"newMinimumWeight","type":"uint256","internalType":"uint256"},{"name":"operators","type":"address[]","internalType":"address[]"}],"outputs":[],"stateMutability":"nonpayable"},{"type":"function","name":"updateOperatorSigningKey","inputs":[{"name":"newSigningKey","type":"address","internalType":"address"}],"outputs":[],"stateMutability":"nonpayable"},{"type":"function","name":"updateOperators","inputs":[{"name":"operators","type":"address[]","internalType":"address[]"}],"outputs":[],"stateMutability":"nonpayable"},{"type":"function","name":"updateOperatorsForQuorum","inputs":[{"name":"operatorsPerQuorum","type":"address[][]","internalType":"address[][]"},{"name":"","type":"bytes","internalType":"bytes"}],"outputs":[],"stateMutability":"nonpayable"},{"type":"function","name":"updateQuorumConfig","inputs":[{"name":"quorum","type":"tuple","internalType":"struct IECDSAStakeRegistryTypes.Quorum","components":[{"name":"strategies","type":"tuple[]","internalType":"struct IECDSAStakeRegistryTypes.StrategyParams[]","components":[{"name":"strategy","type":"address","internalType":"contract IStrategy"},{"name":"multiplier","type":"uint96","internalType":"uint96"}]}]},{"name":"operators","type":"address[]","internalType":"address[]"}],"outputs":[],"stateMutability":"nonpayable"},{"type":"function","name":"updateStakeThreshold","inputs":[{"name":"thresholdWeight","type":"uint256","internalType":"uint256"}],"outputs":[],"stateMutability":"nonpayable"},{"type":"event","name":"Initialized","inputs":[{"name":"version","type":"uint8","indexed":false,"internalType":"uint8"}],"anonymous":false},{"type":"event","name":"MinimumWeightUpdated","inputs":[{"name":"previous","type":"uint256","indexed":false,"internalType":"uint256"},{"name":"current","type":"uint256","indexed":false,"internalType":"uint256"}],"anonymous":false},{"type":"event","name":"OperatorDeregistered","inputs":[{"name":"operator","type":"address","indexed":true,"internalType":"address"},{"name":"avs","type":"address","indexed":true,"internalType":"address"}],"anonymous":false},{"type":"event","name":"OperatorRegistered","inputs":[{"name":"operator","type":"address","indexed":true,"internalType":"address"},{"name":"avs","type":"address","indexed":true,"internalType":"address"}],"anonymous":false},{"type":"event","name":"OperatorWeightUpdated","inputs":[{"name":"operator","type":"address","indexed":true,"internalType":"address"},{"name":"oldWeight","type":"uint256","indexed":false,"internalType":"uint256"},{"name":"newWeight","type":"uint256","indexed":false,"internalType":"uint256"}],"anonymous":false},{"type":"event","name":"OwnershipTransferred","inputs":[{"name":"previousOwner","type":"address","indexed":true,"internalType":"address"},{"name":"newOwner","type":"address","indexed":true,"internalType":"address"}],"anonymous":false},{"type":"event","name":"QuorumUpdated","inputs":[{"name":"previous","type":"tuple","indexed":false,"internalType":"struct IECDSAStakeRegistryTypes.Quorum","components":[{"name":"strategies","type":"tuple[]","internalType":"struct IECDSAStakeRegistryTypes.StrategyParams[]","components":[{"name":"strategy","type":"address","internalType":"contract IStrategy"},{"name":"multiplier","type":"uint96","internalType":"uint96"}]}]},{"name":"current","type":"tuple","indexed":false,"internalType":"struct IECDSAStakeRegistryTypes.Quorum","components":[{"name":"strategies","type":"tuple[]","internalType":"struct IECDSAStakeRegistryTypes.StrategyParams[]","components":[{"name":"strategy","type":"address","internalType":"contract IStrategy"},{"name":"multiplier","type":"uint96","internalType":"uint96"}]}]}],"anonymous":false},{"type":"event","name":"SigningKeyUpdate","inputs":[{"name":"operator","type":"address","indexed":true,"internalType":"address"},{"name":"updateBlock","type":"uint256","indexed":true,"internalType":"uint256"},{"name":"newSigningKey","type":"address","indexed":true,"internalType":"address"},{"name":"oldSigningKey","type":"address","indexed":false,"internalType":"address"}],"anonymous":false},{"type":"event","name":"ThresholdWeightUpdated","inputs":[{"name":"thresholdWeight","type":"uint256","indexed":false,"internalType":"uint256"}],"anonymous":false},{"type":"event","name":"TotalWeightUpdated","inputs":[{"name":"oldTotalWeight","type":"uint256","indexed":false,"internalType":"uint256"},{"name":"newTotalWeight","type":"uint256","indexed":false,"internalType":"uint256"}],"anonymous":false},{"type":"event","name":"UpdateMinimumWeight","inputs":[{"name":"oldMinimumWeight","type":"uint256","indexed":false,"internalType":"uint256"},{"name":"newMinimumWeight","type":"uint256","indexed":false,"internalType":"uint256"}],"anonymous":false},{"type":"error","name":"InsufficientSignedStake","inputs":[]},{"type":"error","name":"InsufficientWeight","inputs":[]},{"type":"error","name":"InvalidLength","inputs":[]},{"type":"error","name":"InvalidQuorum","inputs":[]},{"type":"error","name":"InvalidReferenceBlock","inputs":[]},{"type":"error","name":"InvalidSignature","inputs":[]},{"type":"error","name":"InvalidSignedWeight","inputs":[]},{"type":"error","name":"InvalidThreshold","inputs":[]},{"type":"error","name":"LengthMismatch","inputs":[]},{"type":"error","name":"MustUpdateAllOperators","inputs":[]},{"type":"error","name":"NotSorted","inputs":[]},{"type":"error","name":"OperatorAlreadyRegistered","inputs":[]},{"type":"error","name":"OperatorNotRegistered","inputs":[]}],"bytecode":{"object":"0x60a0604052348015600e575f5ffd5b5060405161282e38038061282e833981016040819052602b91603b565b6001600160a01b03166080526066565b5f60208284031215604a575f5ffd5b81516001600160a01b0381168114605f575f5ffd5b9392505050565b6080516127b061007e5f395f61070a01526127b05ff3fe608060405234801561000f575f5ffd5b506004361061016c575f3560e01c8063696255be116100d957806398ec1ac911610093578063b933fa741161006e578063b933fa7414610319578063dec5d1f614610321578063ec7fbb3114610334578063f2fde38b1461036f575f5ffd5b806398ec1ac9146102e0578063a2ce5fd1146102f3578063ab11899514610306575f5ffd5b8063696255be14610286578063715018a614610299578063743c31f4146102a1578063857dc190146102b45780638da5cb5b146102bc578063955f2d90146102cd575f5ffd5b80633b242e4a1161012a5780633b242e4a146102075780633d5611f61461021a57806340bf2fb71461022d5780635140a548146102355780635e1042e8146102485780635ef5332914610273575f5ffd5b8062cf2ab5146101705780630dba3394146101855780631626ba7e146101ab5780631703a018146101d75780631e4cd85e146101ec578063314f3a49146101ff575b5f5ffd5b61018361017e366004611d6c565b610382565b005b610198610193366004611db6565b61038e565b6040519081526020015b60405180910390f35b6101be6101b9366004611e44565b6103a9565b6040516001600160e01b031990911681526020016101a2565b6101df6103e5565b6040516101a29190611ee4565b6101986101fa366004611db6565b610476565b61019861048b565b610198610215366004611ef6565b6104a4565b610183610228366004611f11565b6104d3565b606754610198565b610183610243366004611fc1565b6104e2565b61025b610256366004612084565b610504565b6040516001600160a01b0390911681526020016101a2565b6101836102813660046120ae565b61052c565b6101836102943660046120c5565b61053d565b610183610557565b6101836102af366004611ef6565b61056a565b6101836105a3565b6033546001600160a01b031661025b565b6101986102db3660046120fe565b6105ac565b6101986102ee366004611ef6565b6105d6565b61025b610301366004611ef6565b61081b565b61018361031436600461220c565b61083b565b610198610951565b61018361032f366004612260565b61095c565b61035f610342366004611ef6565b6001600160a01b03165f908152606e602052604090205460ff1690565b60405190151581526020016101a2565b61018361037d366004611ef6565b61096d565b61038b816109e3565b50565b5f6103a3606b63ffffffff80851690610a2f16565b92915050565b5f5f5f5f848060200190518101906103c1919061237b565b9250925092506103d386848484610aeb565b50630b135d3f60e11b95945050505050565b604080516020810190915260608152604080516066805460208181028401850185528301818152929391928492909184915f9085015b82821015610469575f84815260209081902060408051808201909152908401546001600160a01b0381168252600160a01b90046001600160601b03168183015282526001909201910161041b565b5050505081525050905090565b5f6103a3606c63ffffffff80851690610a2f16565b5f610496606b610b9a565b6001600160e01b0316905090565b6001600160a01b0381165f908152606d602052604081206104c490610b9a565b6001600160e01b031692915050565b6104de338383610bd2565b5050565b6104de825f815181106104f7576104f761244f565b6020026020010151610d01565b6001600160a01b0382165f908152606a602052604081206105259083610a2f565b9392505050565b610534610d24565b61038b81610d7e565b610545610d24565b61054e82610dc1565b6104de816109e3565b61055f610d24565b6105685f610e07565b565b335f908152606e602052604090205460ff16610599576040516325ec6c1f60e01b815260040160405180910390fd5b61038b3382610e58565b61056833610f08565b6001600160a01b0382165f908152606d602052604081206105259063ffffffff80851690610a2f16565b5f5f60665f01805480602002602001604051908101604052809291908181526020015f905b82821015610649575f84815260209081902060408051808201909152908401546001600160a01b0381168252600160a01b90046001600160601b0316818301528252600190920191016105fb565b5050505090505f5f82516001600160401b0381111561066a5761066a611c35565b604051908082528060200260200182016040528015610693578160200160208202803683370190505b5090505f5b83518110156106f0578381815181106106b3576106b361244f565b60200260200101515f01518282815181106106d0576106d061244f565b6001600160a01b0390921660209283029190910190910152600101610698565b50604051639004134760e01b81525f906001600160a01b037f000000000000000000000000000000000000000000000000000000000000000016906390041347906107419089908690600401612463565b5f60405180830381865afa15801561075b573d5f5f3e3d5ffd5b505050506040513d5f823e601f3d908101601f1916820160405261078291908101906124c1565b90505f5b84518110156107ee578481815181106107a1576107a161244f565b6020026020010151602001516001600160601b03168282815181106107c8576107c861244f565b60200260200101516107da919061255b565b6107e49085612572565b9350600101610786565b506107fb61271084612585565b92506067548310610810575090949350505050565b505f95945050505050565b6001600160a01b0381165f908152606a602052604081206103a390610b9a565b5f54610100900460ff161580801561085957505f54600160ff909116105b806108725750303b15801561087257505f5460ff166001145b6108da5760405162461bcd60e51b815260206004820152602e60248201527f496e697469616c697a61626c653a20636f6e747261637420697320616c72656160448201526d191e481a5b9a5d1a585b1a5e995960921b60648201526084015b60405180910390fd5b5f805460ff1916600117905580156108fb575f805461ff0019166101001790555b610906848484611022565b801561094b575f805461ff0019169055604051600181527f7f26b83ff96e1f2b6a682f133852f6798a09c465da95921460cefb38474024989060200160405180910390a15b50505050565b5f610496606c610b9a565b610964610d24565b61054e82611082565b610975610d24565b6001600160a01b0381166109da5760405162461bcd60e51b815260206004820152602660248201527f4f776e61626c653a206e6577206f776e657220697320746865207a65726f206160448201526564647265737360d01b60648201526084016108d1565b61038b81610e07565b5f5f5b8251811015610a2557610a11838281518110610a0457610a0461244f565b60200260200101516111d4565b610a1b90836125a4565b91506001016109e6565b5061094b81611302565b5f438210610a7f5760405162461bcd60e51b815260206004820181905260248201527f436865636b706f696e74733a20626c6f636b206e6f7420796574206d696e656460448201526064016108d1565b5f610a8983611375565b84549091505f610a9b868483856113dd565b90508015610ad657610abf86610ab26001846125cb565b5f91825260209091200190565b5464010000000090046001600160e01b0316610ad8565b5f5b6001600160e01b03169695505050505050565b5f835190505f5f5f5f610aff858851611438565b5f5b85811015610b8457888181518110610b1b57610b1b61244f565b60200260200101519450610b2f858861147b565b9250610b3b84866114cc565b610b5f838b8a8481518110610b5257610b5261244f565b60200260200101516114fe565b8493505f610b6d868961152f565b9050610b798184612572565b925050600101610b01565b50610b8f8187611580565b505050505050505050565b80545f908015610bca57610bb383610ab26001846125cb565b5464010000000090046001600160e01b0316610525565b5f9392505050565b6001600160a01b0383165f908152606e602052604090205460ff1615610c0b576040516342ee68b560e01b815260040160405180910390fd5b60658054905f610c1a836125de565b90915550506001600160a01b0383165f908152606e60205260408120805460ff19166001179055610c4a846111d4565b9050610c5581611302565b5050610c618483610e58565b606854604051639926ee7d60e01b81526001600160a01b0390911690639926ee7d90610c939087908790600401612624565b5f604051808303815f87803b158015610caa575f5ffd5b505af1158015610cbc573d5f5f3e3d5ffd5b50506068546040516001600160a01b03918216935090871691507fa453db612af59e5521d6ab9284dc3e2d06af286eb1b1b7b771fce4716c19f2c1905f90a350505050565b6065548151146103825760405163169efb5b60e11b815260040160405180910390fd5b6033546001600160a01b031633146105685760405162461bcd60e51b815260206004820181905260248201527f4f776e61626c653a2063616c6c6572206973206e6f7420746865206f776e657260448201526064016108d1565b610d89606c826115da565b50506040518181527f9324f7e5a7c0288808a634ccde44b8e979676474b22e29ee9dd569b55e791a4b9060200160405180910390a150565b606780549082905560408051828152602081018490527f713ca53b88d6eb63f5b1854cb8cbdd736ec51eda225e46791aa9298b0160648f91015b60405180910390a15050565b603380546001600160a01b038381166001600160a01b0319831681179093556040519116919082907f8be0079c531659141344cd1fd0a4f28419497f9722a3daafe3b4186f6b6457e0905f90a35050565b6001600160a01b0382165f908152606a60205260408120610e7890610b9a565b9050806001600160a01b0316826001600160a01b031603610e9857505050565b6001600160a01b038381165f908152606a60205260409020610ebb9184166115da565b50506040516001600160a01b0382811682528084169143918616907fd061168252f441733658f09e4d8f5b2d998ed4ef24a2bbfd6ceca52ea13150029060200160405180910390a4505050565b6001600160a01b0381165f908152606e602052604090205460ff16610f40576040516325ec6c1f60e01b815260040160405180910390fd5b60658054905f610f4f8361266e565b90915550506001600160a01b0381165f908152606e60205260408120805460ff19169055610f7c826111d4565b9050610f8781611302565b50506068546040516351b27a6d60e11b81526001600160a01b0384811660048301529091169063a364f4da906024015f604051808303815f87803b158015610fcd575f5ffd5b505af1158015610fdf573d5f5f3e3d5ffd5b50506068546040516001600160a01b03918216935090851691507f31e0adfec71bccee37b6e83a90c2fedb17d8f1693fee863c4771e7bfe2aed580905f90a35050565b5f54610100900460ff166110485760405162461bcd60e51b81526004016108d190612683565b606880546001600160a01b0319166001600160a01b03851617905561106c82610d7e565b61107581611082565b61107d61160f565b505050565b61108b8161163d565b6110a85760405163d173577960e01b815260040160405180910390fd5b6040805160668054602081810284018501855283018181525f9484928491879085015b82821015611119575f84815260209081902060408051808201909152908401546001600160a01b0381168252600160a01b90046001600160601b0316818301528252600190920191016110cb565b505050915250909150606690505f6111318282611c0b565b50505f5b8251518110156111a2578251805160669190839081106111575761115761244f565b6020908102919091018101518254600181810185555f94855293839020825192909301516001600160601b0316600160a01b026001600160a01b039092169190911791015501611135565b507f23aad4e61744ece164130aa415c1616e80136b0f0770e56589438b90b269265e8183604051610dfb9291906126ce565b6001600160a01b0381165f908152606d602052604081208190819081906111fa90610b9a565b6001600160a01b0386165f908152606e60205260409020546001600160e01b0391909116915060ff1661126a5761123181846126fb565b9250825f036112435750909392505050565b6001600160a01b0385165f908152606d60205260408120611263916115da565b50506112b5565b611273856105d6565b915061127f81836126fb565b9250825f036112915750909392505050565b6001600160a01b0385165f908152606d602052604090206112b290836115da565b50505b60408051828152602081018490526001600160a01b038716917f88770dc862e47a7ed586907857eb1b75e4c5ffc8b707c7ee10eb74d6885fe594910160405180910390a250909392505050565b5f5f61130e606b610b9a565b6001600160e01b031691505f61132484846125a4565b9150819050611334606b826115da565b505060408051848152602081018490527f86dcf86b12dfeedea74ae9300dbdaa193bcce5809369c8177ea2f4eaaa65729b910160405180910390a150915091565b5f63ffffffff8211156113d95760405162461bcd60e51b815260206004820152602660248201527f53616665436173743a2076616c756520646f65736e27742066697420696e203360448201526532206269747360d01b60648201526084016108d1565b5090565b5f5b81831015611430575f6113f28484611700565b5f8781526020902090915063ffffffff86169082015463ffffffff16111561141c5780925061142a565b611427816001612572565b93505b506113df565b509392505050565b80821461145b576040516001621398b960e31b0319815260040160405180910390fd5b815f036104de5760405163251f56a160e21b815260040160405180910390fd5b5f438263ffffffff16106114a25760405163e64f180f60e01b815260040160405180910390fd5b6001600160a01b0383165f908152606a602052604090206105259063ffffffff80851690610a2f16565b806001600160a01b0316826001600160a01b0316106104de5760405163ba50f91160e01b815260040160405180910390fd5b6115126001600160a01b038416838361171a565b61107d57604051638baa579f60e01b815260040160405180910390fd5b5f438263ffffffff16106115565760405163e64f180f60e01b815260040160405180910390fd5b6001600160a01b0383165f908152606d602052604090206105259063ffffffff80851690610a2f16565b5f61158a82611778565b9050808311156115ad57604051634b05a0f760e11b815260040160405180910390fd5b5f6115b7836117b3565b90508381111561094b5760405163e121632f60e01b815260040160405180910390fd5b5f806115f7846115e943611375565b6115f2866117ee565b611856565b6001600160e01b0391821693501690505b9250929050565b5f54610100900460ff166116355760405162461bcd60e51b81526004016108d190612683565b6105686119f9565b80515f90818080805b84518110156116df578481815181106116615761166161244f565b60200260200101515f01519250826001600160a01b0316846001600160a01b0316106116a05760405163ba50f91160e01b815260040160405180910390fd5b8293508481815181106116b5576116b561244f565b6020026020010151602001516001600160601b0316826116d59190612572565b9150600101611646565b5061271081146116f457505f95945050505050565b50600195945050505050565b5f61170e6002848418612585565b61052590848416612572565b5f5f5f6117278585611a28565b90925090505f81600481111561173f5761173f612721565b14801561175d5750856001600160a01b0316826001600160a01b0316145b8061176e575061176e868686611a67565b9695505050505050565b5f438263ffffffff161061179f5760405163e64f180f60e01b815260040160405180910390fd5b6103a3606b63ffffffff80851690610a2f16565b5f438263ffffffff16106117da5760405163e64f180f60e01b815260040160405180910390fd5b6103a3606c63ffffffff80851690610a2f16565b5f6001600160e01b038211156113d95760405162461bcd60e51b815260206004820152602760248201527f53616665436173743a2076616c756520646f65736e27742066697420696e20326044820152663234206269747360c81b60648201526084016108d1565b82545f908190801561199c575f61187287610ab26001856125cb565b60408051808201909152905463ffffffff8082168084526401000000009092046001600160e01b0316602084015291925090871610156118f45760405162461bcd60e51b815260206004820152601b60248201527f436865636b706f696e743a2064656372656173696e67206b657973000000000060448201526064016108d1565b805163ffffffff80881691160361193d578461191588610ab26001866125cb565b80546001600160e01b03929092166401000000000263ffffffff90921691909117905561198c565b6040805180820190915263ffffffff80881682526001600160e01b0380881660208085019182528b54600181018d555f8d81529190912094519151909216640100000000029216919091179101555b6020015192508391506119f19050565b50506040805180820190915263ffffffff80851682526001600160e01b0380851660208085019182528854600181018a555f8a8152918220955192519093166401000000000291909316179201919091559050815b935093915050565b5f54610100900460ff16611a1f5760405162461bcd60e51b81526004016108d190612683565b61056833610e07565b5f5f8251604103611a5c576020830151604084015160608501515f1a611a5087828585611b4e565b94509450505050611608565b505f90506002611608565b5f5f5f856001600160a01b0316631626ba7e60e01b8686604051602401611a8f929190612735565b60408051601f198184030181529181526020820180516001600160e01b03166001600160e01b0319909416939093179092529051611acd919061274d565b5f60405180830381855afa9150503d805f8114611b05576040519150601f19603f3d011682016040523d82523d5f602084013e611b0a565b606091505b5091509150818015611b1e57506020815110155b801561176e57508051630b135d3f60e11b90611b439083016020908101908401612763565b149695505050505050565b5f807f7fffffffffffffffffffffffffffffff5d576e7357a4501ddfe92f46681b20a0831115611b8357505f90506003611c02565b604080515f8082526020820180845289905260ff881692820192909252606081018690526080810185905260019060a0016020604051602081039080840390855afa158015611bd4573d5f5f3e3d5ffd5b5050604051601f1901519150506001600160a01b038116611bfc575f60019250925050611c02565b91505f90505b94509492505050565b5080545f8255905f5260205f209081019061038b91905b808211156113d9575f8155600101611c22565b634e487b7160e01b5f52604160045260245ffd5b604051602081016001600160401b0381118282101715611c6b57611c6b611c35565b60405290565b604080519081016001600160401b0381118282101715611c6b57611c6b611c35565b604051601f8201601f191681016001600160401b0381118282101715611cbb57611cbb611c35565b604052919050565b5f6001600160401b03821115611cdb57611cdb611c35565b5060051b60200190565b6001600160a01b038116811461038b575f5ffd5b5f82601f830112611d08575f5ffd5b8135611d1b611d1682611cc3565b611c93565b8082825260208201915060208360051b860101925085831115611d3c575f5ffd5b602085015b83811015611d62578035611d5481611ce5565b835260209283019201611d41565b5095945050505050565b5f60208284031215611d7c575f5ffd5b81356001600160401b03811115611d91575f5ffd5b611d9d84828501611cf9565b949350505050565b63ffffffff8116811461038b575f5ffd5b5f60208284031215611dc6575f5ffd5b813561052581611da5565b5f6001600160401b03821115611de957611de9611c35565b50601f01601f191660200190565b5f82601f830112611e06575f5ffd5b8135611e14611d1682611dd1565b818152846020838601011115611e28575f5ffd5b816020850160208301375f918101602001919091529392505050565b5f5f60408385031215611e55575f5ffd5b8235915060208301356001600160401b03811115611e71575f5ffd5b611e7d85828601611df7565b9150509250929050565b8051602080845281518482018190525f9290910190829060408601905b80831015611d6257835180516001600160a01b031683526020908101516001600160601b0316818401529093019260019290920191604090910190611ea4565b602081525f6105256020830184611e87565b5f60208284031215611f06575f5ffd5b813561052581611ce5565b5f5f60408385031215611f22575f5ffd5b82356001600160401b03811115611f37575f5ffd5b830160608186031215611f48575f5ffd5b604051606081016001600160401b0381118282101715611f6a57611f6a611c35565b60405281356001600160401b03811115611f82575f5ffd5b611f8e87828501611df7565b82525060208281013581830152604092830135928201929092529250830135611fb681611ce5565b809150509250929050565b5f5f60408385031215611fd2575f5ffd5b82356001600160401b03811115611fe7575f5ffd5b8301601f81018513611ff7575f5ffd5b8035612005611d1682611cc3565b8082825260208201915060208360051b850101925087831115612026575f5ffd5b602084015b838110156120665780356001600160401b03811115612048575f5ffd5b6120578a602083890101611cf9565b8452506020928301920161202b565b50945050505060208301356001600160401b03811115611e71575f5ffd5b5f5f60408385031215612095575f5ffd5b82356120a081611ce5565b946020939093013593505050565b5f602082840312156120be575f5ffd5b5035919050565b5f5f604083850312156120d6575f5ffd5b8235915060208301356001600160401b038111156120f2575f5ffd5b611e7d85828601611cf9565b5f5f6040838503121561210f575f5ffd5b823561211a81611ce5565b91506020830135611fb681611da5565b5f6020828403121561213a575f5ffd5b612142611c49565b905081356001600160401b03811115612159575f5ffd5b8201601f81018413612169575f5ffd5b8035612177611d1682611cc3565b8082825260208201915060208360061b850101925086831115612198575f5ffd5b6020840193505b8284101561220057604084880312156121b6575f5ffd5b6121be611c71565b84356121c981611ce5565b815260208501356001600160601b03811681146121e4575f5ffd5b806020830152508083525060208201915060408401935061219f565b84525091949350505050565b5f5f5f6060848603121561221e575f5ffd5b833561222981611ce5565b92506020840135915060408401356001600160401b0381111561224a575f5ffd5b6122568682870161212a565b9150509250925092565b5f5f60408385031215612271575f5ffd5b82356001600160401b03811115612286575f5ffd5b6122928582860161212a565b92505060208301356001600160401b038111156120f2575f5ffd5b5f82601f8301126122bc575f5ffd5b81516122ca611d1682611cc3565b8082825260208201915060208360051b8601019250858311156122eb575f5ffd5b602085015b83811015611d625780516001600160401b0381111561230d575f5ffd5b8601603f8101881361231d575f5ffd5b602081015161232e611d1682611dd1565b8181526040838301018a1015612342575f5ffd5b8160408401602083015e5f602083830101528086525050506020830192506020810190506122f0565b805161237681611da5565b919050565b5f5f5f6060848603121561238d575f5ffd5b83516001600160401b038111156123a2575f5ffd5b8401601f810186136123b2575f5ffd5b80516123c0611d1682611cc3565b8082825260208201915060208360051b8501019250888311156123e1575f5ffd5b6020840193505b8284101561240c5783516123fb81611ce5565b8252602093840193909101906123e8565b8096505050505060208401516001600160401b0381111561242b575f5ffd5b612437868287016122ad565b9250506124466040850161236b565b90509250925092565b634e487b7160e01b5f52603260045260245ffd5b6001600160a01b03831681526040602080830182905283519183018290525f91908401906060840190835b818110156124b55783516001600160a01b031683526020938401939092019160010161248e565b50909695505050505050565b5f602082840312156124d1575f5ffd5b81516001600160401b038111156124e6575f5ffd5b8201601f810184136124f6575f5ffd5b8051612504611d1682611cc3565b8082825260208201915060208360051b850101925086831115612525575f5ffd5b6020840193505b8284101561176e57835182526020938401939091019061252c565b634e487b7160e01b5f52601160045260245ffd5b80820281158282048414176103a3576103a3612547565b808201808211156103a3576103a3612547565b5f8261259f57634e487b7160e01b5f52601260045260245ffd5b500490565b8082018281125f8312801582168215821617156125c3576125c3612547565b505092915050565b818103818111156103a3576103a3612547565b5f600182016125ef576125ef612547565b5060010190565b5f81518084528060208401602086015e5f602082860101526020601f19601f83011685010191505092915050565b60018060a01b0383168152604060208201525f82516060604084015261264d60a08401826125f6565b90506020840151606084015260408401516080840152809150509392505050565b5f8161267c5761267c612547565b505f190190565b6020808252602b908201527f496e697469616c697a61626c653a20636f6e7472616374206973206e6f74206960408201526a6e697469616c697a696e6760a81b606082015260800190565b604081525f6126e06040830185611e87565b82810360208401526126f28185611e87565b95945050505050565b8181035f83128015838313168383128216171561271a5761271a612547565b5092915050565b634e487b7160e01b5f52602160045260245ffd5b828152604060208201525f611d9d60408301846125f6565b5f82518060208501845e5f920191825250919050565b5f60208284031215612773575f5ffd5b505191905056fea2646970667358221220f6784f89deca8846f7ca2b90f648a7e29cd1cf22923372dd888d96e28a6b44e364736f6c634300081b0033","linkReferences":{}},"methodIdentifiers":{"deregisterOperator()":"857dc190","getLastCheckpointOperatorWeight(address)":"3b242e4a","getLastCheckpointThresholdWeight()":"b933fa74","getLastCheckpointThresholdWeightAtBlock(uint32)":"1e4cd85e","getLastCheckpointTotalWeight()":"314f3a49","getLastCheckpointTotalWeightAtBlock(uint32)":"0dba3394","getLatestOperatorSigningKey(address)":"a2ce5fd1","getOperatorSigningKeyAtBlock(address,uint256)":"5e1042e8","getOperatorWeight(address)":"98ec1ac9","getOperatorWeightAtBlock(address,uint32)":"955f2d90","initialize(address,uint256,((address,uint96)[]))":"ab118995","isValidSignature(bytes32,bytes)":"1626ba7e","minimumWeight()":"40bf2fb7","operatorRegistered(address)":"ec7fbb31","owner()":"8da5cb5b","quorum()":"1703a018","registerOperatorWithSignature((bytes,bytes32,uint256),address)":"3d5611f6","renounceOwnership()":"715018a6","transferOwnership(address)":"f2fde38b","updateMinimumWeight(uint256,address[])":"696255be","updateOperatorSigningKey(address)":"743c31f4","updateOperators(address[])":"00cf2ab5","updateOperatorsForQuorum(address[][],bytes)":"5140a548","updateQuorumConfig(((address,uint96)[]),address[])":"dec5d1f6","updateStakeThreshold(uint256)":"5ef53329"},"id":46}